S01600004B657970616420616E64204C43442E737265636A
S11300000C942A000C943F000C943F000C943F0085
S11300100C943F000C943F000C943F000C943F0060
S11300200C943F000C943F000C943F000C943F0050
S11300300C943F000C943F000C943F000C943F0040
S11300400C943F000C943F000C943F000C943F0030
S11300500C943F0011241FBECFE5D8E0DEBFCDBF16
S113006010E0A0E6B0E0E8E0F3E002C005900D92F5
S1130070A039B107D9F70E94ED000C9482010C94C9
S1130080000040E050E037C080EF87BB9A012C5F4E
S11300903F4F81E090E002C0880F991F2A95E2F754
S11300A0809588BB20E030E021C086B390E0022E2A
S11300B002C0959587950A94E2F780FD15C086B332
S11300C090E0022E02C0959587950A94E2F780FF8E
S11300D0F6CF220F331F220F331F205A3F4FF9014F
S11300E0E40FF51F808108952F5F3F4F24303105C1
S11300F0E4F24F5F5F4F4430510534F2C2CF0E94A7
S11301004100089585BB8BB38E7F8BBB8BB38D7FF2
S11301108BBB8BB384608BBB89EF90E00197F1F7C5
S113012000C000008BB38B7F8BBB89EF90E00197FD
S1130130F1F700C00000089585BB8BB381608BBBD1
S11301408BB38D7F8BBB8BB384608BBB89EF90E0CB
S11301500197F1F700C000008BB38B7F8BBB89EF55
S113016090E00197F1F700C0000008958FEF84BB81
S11301708AB387608ABB87E893E10197F1F700C0EF
S1130180000088E30E9482008EE00E94820081E0E9
S11301900E94820083EF91E00197F1F700C0000014
S11301A008950F931F93CF93DF938C01C0E0D0E0A9
S11301B009C00E949C0087EA91E60197F1F700C00C
S11301C000002196F801EC0FFD1F80818111F1CF11
S11301D0DF91CF911F910F910895CF93DF93CDB706
S11301E0DEB72C970FB6F894DEBF0FBECDBF8AB32F
S11301F080EF8ABB8BB38F608BBB0E94B60080E814
S11302000E94820080E790E00E94D10080EC0E946E
S1130210820000E010E00E947F008823E1F390ED6B
S1130220980F9A3010F08332B1F7833209F05AC034
S11302300B30110529F58981803311F58A818133C9
S1130240F9F480EC0E94820000E010E005C080E236
S11302500E949C000F5F1F4F00311105C4F380EC16
S11302600E94820080E890E00E94D1002FEB87E298
S113027099E0215080409040E1F700C000001EC08A
S113028080EC0E94820000E010E005C080E20E9441
S11302909C000F5F1F4F00311105C4F380EC0E94D6
S11302A0820087E890E00E94D1002FEB87E299E07A
S11302B0215080409040E1F700C0000080EC0E9493
S11302C0820000E010E005C080E20E949C000F5F05
S11302D01F4F00311105C4F380EC0E94820000E03E
S11302E010E099CF0B3011050CF095CFE1E0F0E070
S11302F0EC0FFD1FE00FF11F80830E949C000F5F35
S10B03001F4F89CFF894FFCFD1
S113030831323330343536303738393030302330C1
S113031820456E7465722061206E756D6265720089
S11303282053617665640020496E76616C696400C7
S9030000FC
